{
  "contractName": "Voting",
  "abi": [
    {
      "inputs": [],
      "stateMutability": "nonpayable",
      "type": "constructor"
    },
    {
      "inputs": [],
      "name": "owner",
      "outputs": [
        {
          "internalType": "address",
          "name": "",
          "type": "address"
        }
      ],
      "stateMutability": "view",
      "type": "function"
    },
    {
      "inputs": [],
      "name": "total_proposal_count",
      "outputs": [
        {
          "internalType": "uint256",
          "name": "",
          "type": "uint256"
        }
      ],
      "stateMutability": "view",
      "type": "function"
    },
    {
      "inputs": [
        {
          "internalType": "string",
          "name": "_title",
          "type": "string"
        },
        {
          "internalType": "string",
          "name": "_types",
          "type": "string"
        },
        {
          "internalType": "string",
          "name": "_content",
          "type": "string"
        }
      ],
      "name": "make_proposal",
      "outputs": [],
      "stateMutability": "nonpayable",
      "type": "function"
    },
    {
      "inputs": [
        {
          "internalType": "uint256",
          "name": "index",
          "type": "uint256"
        }
      ],
      "name": "upgrade_proposal",
      "outputs": [],
      "stateMutability": "nonpayable",
      "type": "function"
    },
    {
      "inputs": [
        {
          "internalType": "uint256",
          "name": "index",
          "type": "uint256"
        }
      ],
      "name": "done_Proposal",
      "outputs": [],
      "stateMutability": "nonpayable",
      "type": "function"
    },
    {
      "inputs": [],
      "name": "view_address_Proposal",
      "outputs": [
        {
          "components": [
            {
              "internalType": "address",
              "name": "Starter_user",
              "type": "address"
            },
            {
              "internalType": "address[]",
              "name": "aggred_User",
              "type": "address[]"
            },
            {
              "internalType": "uint256",
              "name": "count",
              "type": "uint256"
            },
            {
              "internalType": "string",
              "name": "title",
              "type": "string"
            },
            {
              "internalType": "string",
              "name": "types",
              "type": "string"
            },
            {
              "internalType": "string",
              "name": "content",
              "type": "string"
            },
            {
              "internalType": "enum Voting.Status",
              "name": "status",
              "type": "uint8"
            }
          ],
          "internalType": "struct Voting.Proposal[]",
          "name": "",
          "type": "tuple[]"
        }
      ],
      "stateMutability": "view",
      "type": "function"
    },
    {
      "inputs": [
        {
          "internalType": "uint256",
          "name": "index",
          "type": "uint256"
        }
      ],
      "name": "view_Proposal",
      "outputs": [
        {
          "components": [
            {
              "internalType": "address",
              "name": "Starter_user",
              "type": "address"
            },
            {
              "internalType": "address[]",
              "name": "aggred_User",
              "type": "address[]"
            },
            {
              "internalType": "uint256",
              "name": "count",
              "type": "uint256"
            },
            {
              "internalType": "string",
              "name": "title",
              "type": "string"
            },
            {
              "internalType": "string",
              "name": "types",
              "type": "string"
            },
            {
              "internalType": "string",
              "name": "content",
              "type": "string"
            },
            {
              "internalType": "enum Voting.Status",
              "name": "status",
              "type": "uint8"
            }
          ],
          "internalType": "struct Voting.Proposal",
          "name": "",
          "type": "tuple"
        }
      ],
      "stateMutability": "view",
      "type": "function"
    },
    {
      "inputs": [],
      "name": "view_total_Proposal",
      "outputs": [
        {
          "components": [
            {
              "internalType": "address",
              "name": "Starter_user",
              "type": "address"
            },
            {
              "internalType": "address[]",
              "name": "aggred_User",
              "type": "address[]"
            },
            {
              "internalType": "uint256",
              "name": "count",
              "type": "uint256"
            },
            {
              "internalType": "string",
              "name": "title",
              "type": "string"
            },
            {
              "internalType": "string",
              "name": "types",
              "type": "string"
            },
            {
              "internalType": "string",
              "name": "content",
              "type": "string"
            },
            {
              "internalType": "enum Voting.Status",
              "name": "status",
              "type": "uint8"
            }
          ],
          "internalType": "struct Voting.Proposal[]",
          "name": "",
          "type": "tuple[]"
        }
      ],
      "stateMutability": "view",
      "type": "function"
    }
  ],
  "bytecode": "0x60806040526000600355600a60045534801561001a57600080fd5b50336000806101000a81548173ffffffffffffffffffffffffffffffffffffffff021916908373ffffffffffffffffffffffffffffffffffffffff16021790555061247c8061006a6000396000f3fe608060405234801561001057600080fd5b50600436106100885760003560e01c806373d13e081161005b57806373d13e0814610115578063802d98ec146101315780638da5cb5b1461014d578063e2e66d181461016b57610088565b8063059d1fd01461008d5780631bb2cfb7146100bd57806327c566c6146100db57806364ba8f0e146100f7575b600080fd5b6100a760048036038101906100a29190611b9e565b610189565b6040516100b491906120c9565b60405180910390f35b6100c561092e565b6040516100d29190612007565b60405180910390f35b6100f560048036038101906100f09190611b07565b610de8565b005b6100ff611094565b60405161010c9190612007565b60405180910390f35b61012f600480360381019061012a9190611b9e565b611549565b005b61014b60048036038101906101469190611b9e565b61166d565b005b6101556118a8565b6040516101629190611fec565b60405180910390f35b6101736118cc565b60405161018091906120eb565b60405180910390f35b6101916118d2565b6000600160008481526020019081526020016000206040518060e00160405290816000820160009054906101000a900473ffffffffffffffffffffffffffffffffffffffff1673ffffffffffffffffffffffffffffffffffffffff1673ffffffffffffffffffffffffffffffffffffffff1681526020016001820180548060200260200160405190810160405280929190818152602001828054801561028c57602002820191906000526020600020905b8160009054906101000a900473ffffffffffffffffffffffffffffffffffffffff1673ffffffffffffffffffffffffffffffffffffffff1681526020019060010190808311610242575b50505050508152602001600282015481526020016003820180546102af906122d3565b80601f01602080910402602001604051908101604052809291908181526020018280546102db906122d3565b80156103285780601f106102fd57610100808354040283529160200191610328565b820191906000526020600020905b81548152906001019060200180831161030b57829003601f168201915b50505050508152602001600482018054610341906122d3565b80601f016020809104026020016040519081016040528092919081815260200182805461036d906122d3565b80156103ba5780601f1061038f576101008083540402835291602001916103ba565b820191906000526020600020905b81548152906001019060200180831161039d57829003601f168201915b505050505081526020016005820180546103d3906122d3565b80601f01602080910402602001604051908101604052809291908181526020018280546103ff906122d3565b801561044c5780601f106104215761010080835404028352916020019161044c565b820191906000526020600020905b81548152906001019060200180831161042f57829003601f168201915b505050505081526020016006820160009054906101000a900460ff1660018111156104a0577f4e487b7100000000000000000000000000000000000000000000000000000000600052602160045260246000fd5b60018111156104d8577f4e487b7100000000000000000000000000000000000000000000000000000000600052602160045260246000fd5b815250509050600180811115610517577f4e487b7100000000000000000000000000000000000000000000000000000000600052602160045260246000fd5b8160c001516001811115610554577f4e487b7100000000000000000000000000000000000000000000000000000000600052602160045260246000fd5b14806105d4575060006001811115610595577f4e487b7100000000000000000000000000000000000000000000000000000000600052602160045260246000fd5b8160c0015160018111156105d2577f4e487b7100000000000000000000000000000000000000000000000000000000600052602160045260246000fd5b145b6105dd57600080fd5b600160008481526020019081526020016000206040518060e00160405290816000820160009054906101000a900473ffffffffffffffffffffffffffffffffffffffff1673ffffffffffffffffffffffffffffffffffffffff1673ffffffffffffffffffffffffffffffffffffffff168152602001600182018054806020026020016040519081016040528092919081815260200182805480156106d657602002820191906000526020600020905b8160009054906101000a900473ffffffffffffffffffffffffffffffffffffffff1673ffffffffffffffffffffffffffffffffffffffff168152602001906001019080831161068c575b50505050508152602001600282015481526020016003820180546106f9906122d3565b80601f0160208091040260200160405190810160405280929190818152602001828054610725906122d3565b80156107725780601f1061074757610100808354040283529160200191610772565b820191906000526020600020905b81548152906001019060200180831161075557829003601f168201915b5050505050815260200160048201805461078b906122d3565b80601f01602080910402602001604051908101604052809291908181526020018280546107b7906122d3565b80156108045780601f106107d957610100808354040283529160200191610804565b820191906000526020600020905b8154815290600101906020018083116107e757829003601f168201915b5050505050815260200160058201805461081d906122d3565b80601f0160208091040260200160405190810160405280929190818152602001828054610849906122d3565b80156108965780601f1061086b57610100808354040283529160200191610896565b820191906000526020600020905b81548152906001019060200180831161087957829003601f168201915b505050505081526020016006820160009054906101000a900460ff1660018111156108ea577f4e487b7100000000000000000000000000000000000000000000000000000000600052602160045260246000fd5b6001811115610922577f4e487b7100000000000000000000000000000000000000000000000000000000600052602160045260246000fd5b81525050915050919050565b6060600060035467ffffffffffffffff811115610974577f4e487b7100000000000000000000000000000000000000000000000000000000600052604160045260246000fd5b6040519080825280602002602001820160405280156109ad57816020015b61099a6118d2565b8152602001906001900390816109925790505b50905060005b600354811015610de0576000600160008381526020019081526020016000206040518060e00160405290816000820160009054906101000a900473ffffffffffffffffffffffffffffffffffffffff1673ffffffffffffffffffffffffffffffffffffffff1673ffffffffffffffffffffffffffffffffffffffff16815260200160018201805480602002602001604051908101604052809291908181526020018280548015610ab857602002820191906000526020600020905b8160009054906101000a900473ffffffffffffffffffffffffffffffffffffffff1673ffffffffffffffffffffffffffffffffffffffff1681526020019060010190808311610a6e575b5050505050815260200160028201548152602001600382018054610adb906122d3565b80601f0160208091040260200160405190810160405280929190818152602001828054610b07906122d3565b8015610b545780601f10610b2957610100808354040283529160200191610b54565b820191906000526020600020905b815481529060010190602001808311610b3757829003601f168201915b50505050508152602001600482018054610b6d906122d3565b80601f0160208091040260200160405190810160405280929190818152602001828054610b99906122d3565b8015610be65780601f10610bbb57610100808354040283529160200191610be6565b820191906000526020600020905b815481529060010190602001808311610bc957829003601f168201915b50505050508152602001600582018054610bff906122d3565b80601f0160208091040260200160405190810160405280929190818152602001828054610c2b906122d3565b8015610c785780601f10610c4d57610100808354040283529160200191610c78565b820191906000526020600020905b815481529060010190602001808311610c5b57829003601f168201915b505050505081526020016006820160009054906101000a900460ff166001811115610ccc577f4e487b7100000000000000000000000000000000000000000000000000000000600052602160045260246000fd5b6001811115610d04577f4e487b7100000000000000000000000000000000000000000000000000000000600052602160045260246000fd5b81525050905060006001811115610d44577f4e487b7100000000000000000000000000000000000000000000000000000000600052602160045260246000fd5b8160c001516001811115610d81577f4e487b7100000000000000000000000000000000000000000000000000000000600052602160045260246000fd5b14610dcc5780838381518110610dc0577f4e487b7100000000000000000000000000000000000000000000000000000000600052603260045260246000fd5b60200260200101819052505b508080610dd890612305565b9150506109b3565b508091505090565b6003600260003373ffffffffffffffffffffffffffffffffffffffff1673ffffffffffffffffffffffffffffffffffffffff1681526020019081526020016000205410610e6a576040517f08c379a0000000000000000000000000000000000000000000000000000000008152600401610e6190612029565b60405180910390fd5b60606040518060e001604052803373ffffffffffffffffffffffffffffffffffffffff16815260200182815260200160008152602001858152602001848152602001838152602001600180811115610eeb577f4e487b7100000000000000000000000000000000000000000000000000000000600052602160045260246000fd5b81525060016000600354815260200190815260200160002060008201518160000160006101000a81548173ffffffffffffffffffffffffffffffffffffffff021916908373ffffffffffffffffffffffffffffffffffffffff1602179055506020820151816001019080519060200190610f6692919061195d565b50604082015181600201556060820151816003019080519060200190610f8d9291906119e7565b506080820151816004019080519060200190610faa9291906119e7565b5060a0820151816005019080519060200190610fc79291906119e7565b5060c08201518160060160006101000a81548160ff02191690836001811115611019577f4e487b7100000000000000000000000000000000000000000000000000000000600052602160045260246000fd5b0217905550905050600260003373ffffffffffffffffffffffffffffffffffffffff1673ffffffffffffffffffffffffffffffffffffffff168152602001908152602001600020600081548092919061107190612305565b91905055506003600081548092919061108990612305565b919050555050505050565b60606000600260003373ffffffffffffffffffffffffffffffffffffffff1673ffffffffffffffffffffffffffffffffffffffff1681526020019081526020016000205467ffffffffffffffff811115611117577f4e487b7100000000000000000000000000000000000000000000000000000000600052604160045260246000fd5b60405190808252806020026020018201604052801561115057816020015b61113d6118d2565b8152602001906001900390816111355790505b5090506000805b600354811015611540576000600160008381526020019081526020016000206040518060e00160405290816000820160009054906101000a900473ffffffffffffffffffffffffffffffffffffffff1673ffffffffffffffffffffffffffffffffffffffff1673ffffffffffffffffffffffffffffffffffffffff1681526020016001820180548060200260200160405190810160405280929190818152602001828054801561125c57602002820191906000526020600020905b8160009054906101000a900473ffffffffffffffffffffffffffffffffffffffff1673ffffffffffffffffffffffffffffffffffffffff1681526020019060010190808311611212575b505050505081526020016002820154815260200160038201805461127f906122d3565b80601f01602080910402602001604051908101604052809291908181526020018280546112ab906122d3565b80156112f85780601f106112cd576101008083540402835291602001916112f8565b820191906000526020600020905b8154815290600101906020018083116112db57829003601f168201915b50505050508152602001600482018054611311906122d3565b80601f016020809104026020016040519081016040528092919081815260200182805461133d906122d3565b801561138a5780601f1061135f5761010080835404028352916020019161138a565b820191906000526020600020905b81548152906001019060200180831161136d57829003601f168201915b505050505081526020016005820180546113a3906122d3565b80601f01602080910402602001604051908101604052809291908181526020018280546113cf906122d3565b801561141c5780601f106113f15761010080835404028352916020019161141c565b820191906000526020600020905b8154815290600101906020018083116113ff57829003601f168201915b505050505081526020016006820160009054906101000a900460ff166001811115611470577f4e487b7100000000000000000000000000000000000000000000000000000000600052602160045260246000fd5b60018111156114a8577f4e487b7100000000000000000000000000000000000000000000000000000000600052602160045260246000fd5b8152505090503373ffffffffffffffffffffffffffffffffffffffff16816000015173ffffffffffffffffffffffffffffffffffffffff16141561152c5780848481518110611520577f4e487b7100000000000000000000000000000000000000000000000000000000600052603260045260246000fd5b60200260200101819052505b50808061153890612305565b915050611157565b50819250505090565b6000600160008381526020019081526020016000209050600454816002015410156115a9576040517f08c379a00000000000000000000000000000000000000000000000000000000081526004016115a090612069565b60405180910390fd5b600260003373ffffffffffffffffffffffffffffffffffffffff1673ffffffffffffffffffffffffffffffffffffffff16815260200190815260200160002060008154809291906115f9906122a9565b919050555060008160060160006101000a81548160ff0219169083600181111561164c577f4e487b7100000000000000000000000000000000000000000000000000000000600052602160045260246000fd5b021790555060036000815480929190611664906122a9565b91905055505050565b60006001600083815260200190815260200160002090506001808111156116bd577f4e487b7100000000000000000000000000000000000000000000000000000000600052602160045260246000fd5b8160060160009054906101000a900460ff166001811115611707577f4e487b7100000000000000000000000000000000000000000000000000000000600052602160045260246000fd5b14611747576040517f08c379a000000000000000000000000000000000000000000000000000000000815260040161173e90612049565b60405180910390fd5b3373ffffffffffffffffffffffffffffffffffffffff168160000160009054906101000a900473ffffffffffffffffffffffffffffffffffffffff1673ffffffffffffffffffffffffffffffffffffffff1614156117da576040517f08c379a00000000000000000000000000000000000000000000000000000000081526004016117d1906120a9565b60405180910390fd5b600454816001018054905010611825576040517f08c379a000000000000000000000000000000000000000000000000000000000815260040161181c90612089565b60405180910390fd5b80600101339080600181540180825580915050600190039060005260206000200160009091909190916101000a81548173ffffffffffffffffffffffffffffffffffffffff021916908373ffffffffffffffffffffffffffffffffffffffff16021790555080600201600081548092919061189f90612305565b91905055505050565b60008054906101000a900473ffffffffffffffffffffffffffffffffffffffff1681565b60035481565b6040518060e00160405280600073ffffffffffffffffffffffffffffffffffffffff168152602001606081526020016000815260200160608152602001606081526020016060815260200160006001811115611957577f4e487b7100000000000000000000000000000000000000000000000000000000600052602160045260246000fd5b81525090565b8280548282559060005260206000209081019282156119d6579160200282015b828111156119d55782518260006101000a81548173ffffffffffffffffffffffffffffffffffffffff021916908373ffffffffffffffffffffffffffffffffffffffff1602179055509160200191906001019061197d565b5b5090506119e39190611a6d565b5090565b8280546119f3906122d3565b90600052602060002090601f016020900481019282611a155760008555611a5c565b82601f10611a2e57805160ff1916838001178555611a5c565b82800160010185558215611a5c579182015b82811115611a5b578251825591602001919060010190611a40565b5b509050611a699190611a6d565b5090565b5b80821115611a86576000816000905550600101611a6e565b5090565b6000611a9d611a9884612137565b612106565b905082815260208101848484011115611ab557600080fd5b611ac0848285612267565b509392505050565b600082601f830112611ad957600080fd5b8135611ae9848260208601611a8a565b91505092915050565b600081359050611b018161242f565b92915050565b600080600060608486031215611b1c57600080fd5b600084013567ffffffffffffffff811115611b3657600080fd5b611b4286828701611ac8565b935050602084013567ffffffffffffffff811115611b5f57600080fd5b611b6b86828701611ac8565b925050604084013567ffffffffffffffff811115611b8857600080fd5b611b9486828701611ac8565b9150509250925092565b600060208284031215611bb057600080fd5b6000611bbe84828501611af2565b91505092915050565b6000611bd38383611bf3565b60208301905092915050565b6000611beb8383611e6c565b905092915050565b611bfc81612206565b82525050565b611c0b81612206565b82525050565b6000611c1c82612187565b611c2681856121c2565b9350611c3183612167565b8060005b83811015611c62578151611c498882611bc7565b9750611c54836121a8565b925050600181019050611c35565b5085935050505092915050565b6000611c7a82612192565b611c8481856121d3565b935083602082028501611c9685612177565b8060005b85811015611cd25784840389528151611cb38582611bdf565b9450611cbe836121b5565b925060208a01995050600181019050611c9a565b50829750879550505050505092915050565b611ced81612255565b82525050565b6000611cfe8261219d565b611d0881856121e4565b9350611d18818560208601612276565b611d218161240a565b840191505092915050565b6000611d396016836121f5565b91507f6f6e6c7920332070726f706f73616c20656e61626c65000000000000000000006000830152602082019050919050565b6000611d79600d836121f5565b91507f4e6f7420506c6179696e672121000000000000000000000000000000000000006000830152602082019050919050565b6000611db96010836121f5565b91507f4e6f7420456e6f75676820436f756e74000000000000000000000000000000006000830152602082019050919050565b6000611df96011836121f5565b91507f616c7265616479207375636365737321210000000000000000000000000000006000830152602082019050919050565b6000611e396014836121f5565b91507f63616e27742075706772616465206d7953656c660000000000000000000000006000830152602082019050919050565b600060e083016000830151611e846000860182611bf3565b5060208301518482036020860152611e9c8282611c11565b9150506040830151611eb16040860182611fce565b5060608301518482036060860152611ec98282611cf3565b91505060808301518482036080860152611ee38282611cf3565b91505060a083015184820360a0860152611efd8282611cf3565b91505060c0830151611f1260c0860182611ce4565b508091505092915050565b600060e083016000830151611f356000860182611bf3565b5060208301518482036020860152611f4d8282611c11565b9150506040830151611f626040860182611fce565b5060608301518482036060860152611f7a8282611cf3565b91505060808301518482036080860152611f948282611cf3565b91505060a083015184820360a0860152611fae8282611cf3565b91505060c0830151611fc360c0860182611ce4565b508091505092915050565b611fd78161224b565b82525050565b611fe68161224b565b82525050565b60006020820190506120016000830184611c02565b92915050565b600060208201905081810360008301526120218184611c6f565b905092915050565b6000602082019050818103600083015261204281611d2c565b9050919050565b6000602082019050818103600083015261206281611d6c565b9050919050565b6000602082019050818103600083015261208281611dac565b9050919050565b600060208201905081810360008301526120a281611dec565b9050919050565b600060208201905081810360008301526120c281611e2c565b9050919050565b600060208201905081810360008301526120e38184611f1d565b905092915050565b60006020820190506121006000830184611fdd565b92915050565b6000604051905081810181811067ffffffffffffffff8211171561212d5761212c6123db565b5b8060405250919050565b600067ffffffffffffffff821115612152576121516123db565b5b601f19601f8301169050602081019050919050565b6000819050602082019050919050565b6000819050602082019050919050565b600081519050919050565b600081519050919050565b600081519050919050565b6000602082019050919050565b6000602082019050919050565b600082825260208201905092915050565b600082825260208201905092915050565b600082825260208201905092915050565b600082825260208201905092915050565b60006122118261222b565b9050919050565b60008190506122268261241b565b919050565b600073ffffffffffffffffffffffffffffffffffffffff82169050919050565b6000819050919050565b600061226082612218565b9050919050565b82818337600083830152505050565b60005b83811015612294578082015181840152602081019050612279565b838111156122a3576000848401525b50505050565b60006122b48261224b565b915060008214156122c8576122c761234e565b5b600182039050919050565b600060028204905060018216806122eb57607f821691505b602082108114156122ff576122fe6123ac565b5b50919050565b60006123108261224b565b91507fffffffffffffffffffffffffffffffffffffffffffffffffffffffffffffffff8214156123435761234261234e565b5b600182019050919050565b7f4e487b7100000000000000000000000000000000000000000000000000000000600052601160045260246000fd5b7f4e487b7100000000000000000000000000000000000000000000000000000000600052602160045260246000fd5b7f4e487b7100000000000000000000000000000000000000000000000000000000600052602260045260246000fd5b7f4e487b7100000000000000000000000000000000000000000000000000000000600052604160045260246000fd5b6000601f19601f8301169050919050565b6002811061242c5761242b61237d565b5b50565b6124388161224b565b811461244357600080fd5b5056fea264697066735822122015e66c3c778ba29c6804c40355de64e26da7103edad2b4c69ad3263424a65a2e64736f6c63430008000033",
  "immutableReferences": {},
  "source": "// SPDX-License-Identifier: MIT\npragma solidity 0.8.0;\n\ncontract Voting_modifier {\n    address public owner;\n\n    modifier onlyOwner() {\n        require(msg.sender == owner);\n        _;\n    }\n}\n\ncontract Voting is Voting_modifier {\n    //           \n\n    mapping(uint256 => Proposal) proposal_list;\n    mapping(address => uint256) my_proposal_list;\n    uint256 public total_proposal_count = 0;\n    uint256 require_count = 10; //      ,  \n\n    constructor() {\n        owner = msg.sender; //         \n    }\n\n    enum Status {\n        end,\n        playing\n    }\n\n    struct Proposal {\n        address Starter_user;\n        address[] aggred_User; //  \n        uint256 count;\n        string title; //  \n        string types;\n        string content;\n        Status status;\n    }\n\n    function make_proposal(\n        string memory _title,\n        string memory _types,\n        string memory _content\n    ) public {\n        //      \n        //     ,            \n        //          ??\n        require(my_proposal_list[msg.sender] < 3, \"only 3 proposal enable\");\n        address[] memory test;\n        proposal_list[total_proposal_count] = Proposal({\n            Starter_user: msg.sender,\n            count: 0,\n            aggred_User: test,\n            title: _title,\n            types: _types,\n            content: _content,\n            status: Status.playing\n        });\n        my_proposal_list[msg.sender]++;\n\n        total_proposal_count++;\n    }\n\n    function upgrade_proposal(uint256 index) public {\n        Proposal storage pos = proposal_list[index];\n\n        require(pos.status == Status.playing, \"Not Playing!!\");\n        require(pos.Starter_user != msg.sender, \"can't upgrade mySelf\");\n        require(pos.aggred_User.length < require_count, \"already success!!\");\n\n        pos.aggred_User.push(msg.sender);\n        pos.count++;\n    }\n\n    function done_Proposal(uint256 index) public {\n        //    \n        //       \n        Proposal storage pos = proposal_list[index];\n        require(pos.count >= require_count, \"Not Enough Count\");\n        my_proposal_list[msg.sender]--;\n        pos.status = Status.end;\n        total_proposal_count--;\n    }\n\n    function view_address_Proposal() public view returns (Proposal[] memory) {\n        //       \n        //      \n        Proposal[] memory return_value = new Proposal[](\n            my_proposal_list[msg.sender]\n        );\n        uint256 index = 0;\n        for (uint256 i = 0; i < total_proposal_count; i++) {\n            Proposal memory check = proposal_list[i];\n            if (check.Starter_user == msg.sender) {\n                return_value[index] = check;\n            }\n        }\n        return return_value;\n    }\n\n    function view_Proposal(uint256 index)\n        public\n        view\n        returns (Proposal memory)\n    {\n        //  index  Proposal  \n        Proposal memory pos = proposal_list[index];\n        require(pos.status == Status.playing || pos.status == Status.end);\n        return proposal_list[index];\n    }\n\n    function view_total_Proposal() public view returns (Proposal[] memory) {\n        //    \n        // voting_site \n        Proposal[] memory return_value = new Proposal[](total_proposal_count);\n        for (uint256 i = 0; i < total_proposal_count; i++) {\n            Proposal memory check = proposal_list[i];\n            if (check.status != Status.end) {\n                return_value[i] = check;\n            }\n        }\n        return return_value;\n    }\n}\n",
  "sourcePath": "/Users/yuhojin/Desktop/hojin/Truffle/contracts/Voting.sol",
  "compiler": {
    "name": "solc",
    "version": "0.8.0+commit.c7dfd78e.Emscripten.clang"
  },
  "schemaVersion": "3.1.0",
  "updatedAt": "2022-03-09T01:59:11.640Z",
  "devdoc": {
    "kind": "dev",
    "methods": {},
    "version": 1
  },
  "userdoc": {
    "kind": "user",
    "methods": {},
    "version": 1
  }
}