{
  "contractName": "Voting_modifier",
  "abi": [
    {
      "inputs": [],
      "name": "owner",
      "outputs": [
        {
          "internalType": "address",
          "name": "",
          "type": "address"
        }
      ],
      "stateMutability": "view",
      "type": "function"
    }
  ],
  "bytecode": "0x608060405234801561001057600080fd5b5060f78061001f6000396000f3fe6080604052348015600f57600080fd5b506004361060285760003560e01c80638da5cb5b14602d575b600080fd5b60336047565b604051603e91906078565b60405180910390f35b60008054906101000a900473ffffffffffffffffffffffffffffffffffffffff1681565b6072816091565b82525050565b6000602082019050608b6000830184606b565b92915050565b6000609a8260a1565b9050919050565b600073ffffffffffffffffffffffffffffffffffffffff8216905091905056fea2646970667358221220a5311edfaef839dfb3e228e9be5118583175453551af767641c0a91499e98df164736f6c63430008000033",
  "immutableReferences": {},
  "source": "// SPDX-License-Identifier: MIT\npragma solidity 0.8.0;\n\ncontract Voting_modifier {\n    address public owner;\n\n    modifier onlyOwner() {\n        require(msg.sender == owner);\n        _;\n    }\n}\n\ncontract Voting is Voting_modifier {\n    // 특정 사용자가 제안을 실행하고 이 제안에 동의하는 사람들을 표시하는 방식으로 동작\n\n    mapping(uint256 => Proposal) proposal_list;\n    mapping(address => uint256) my_proposal_list;\n    uint256 public total_proposal_count = 0;\n    uint256 require_count = 10; // 얼마만큼의 동의를 얻어야 수행이 가능한지를 표시, 일종의 목표값\n\n    constructor() {\n        owner = msg.sender; // 특정 조건값을 바꾸는데에는 주인 계정만 사용이 가능하게 하기 위해\n    }\n\n    enum Status {\n        end,\n        playing\n    }\n\n    struct Proposal {\n        address Starter_user;\n        address[] aggred_User; // 동의한 주소값\n        uint256 count;\n        string title; // 어떤 제의인지\n        string types;\n        string content;\n        Status status;\n    }\n\n    function make_proposal(\n        string memory _title,\n        string memory _types,\n        string memory _content\n    ) public {\n        // 단순하게 제안서를 받고 제안을 하는 상황\n        // 이 부분에서 이전에 했던 제안, 이미 있는 제안은 거절해야 하는데 이 부분을 어떻게 처리할지 감이 오지를 않음\n        // 단순히 한 사용자당 하나의 제안만을 다룰수 있는 방향으로 진행을 한다??\n        require(my_proposal_list[msg.sender] < 3, \"only 3 proposal enable\");\n        address[] memory test;\n        proposal_list[total_proposal_count] = Proposal({\n            Starter_user: msg.sender,\n            count: 0,\n            aggred_User: test,\n            title: _title,\n            types: _types,\n            content: _content,\n            status: Status.playing\n        });\n        my_proposal_list[msg.sender]++;\n\n        total_proposal_count++;\n    }\n\n    function upgrade_proposal(uint256 index) public {\n        Proposal storage pos = proposal_list[index];\n\n        require(pos.status == Status.playing, \"Not Playing!!\");\n        require(pos.Starter_user != msg.sender, \"can't upgrade mySelf\");\n        require(pos.aggred_User.length < require_count, \"already success!!\");\n\n        pos.aggred_User.push(msg.sender);\n        pos.count++;\n    }\n\n    function done_Proposal(uint256 index) public {\n        //  제안을 끝내는 함수\n        // 반드시 요구되는 카운트 보다 많아야 종료가 가능\n        Proposal storage pos = proposal_list[index];\n        require(pos.count >= require_count, \"Not Enough Count\");\n        my_proposal_list[msg.sender]--;\n        pos.status = Status.end;\n        total_proposal_count--;\n    }\n\n    function view_address_Proposal() public view returns (Proposal[] memory) {\n        // 특정 주소에 해당 하는 데이터를 가져오는 함수\n        // 마이 페이지 부분에 구현이 될 예정\n        Proposal[] memory return_value = new Proposal[](\n            my_proposal_list[msg.sender]\n        );\n        uint256 index = 0;\n        for (uint256 i = 0; i < total_proposal_count; i++) {\n            Proposal memory check = proposal_list[i];\n            if (check.Starter_user == msg.sender) {\n                return_value[index] = check;\n            }\n        }\n        return return_value;\n    }\n\n    function view_Proposal(uint256 index)\n        public\n        view\n        returns (Proposal memory)\n    {\n        // 특정 index에 해당하는 Proposal을 확인하는 함수\n        Proposal memory pos = proposal_list[index];\n        require(pos.status == Status.playing || pos.status == Status.end);\n        return proposal_list[index];\n    }\n\n    function view_total_Proposal() public view returns (Proposal[] memory) {\n        // 진행중인 제안을 보는 용도\n        // voting_site부분에 적용\n        Proposal[] memory return_value = new Proposal[](total_proposal_count);\n        for (uint256 i = 0; i < total_proposal_count; i++) {\n            Proposal memory check = proposal_list[i];\n            if (check.status != Status.end) {\n                return_value[i] = check;\n            }\n        }\n        return return_value;\n    }\n}\n",
  "sourcePath": "/Users/yuhojin/Desktop/hojin/Truffle/contracts/Voting.sol",
  "compiler": {
    "name": "solc",
    "version": "0.8.0+commit.c7dfd78e.Emscripten.clang"
  },
  "schemaVersion": "3.1.0",
  "updatedAt": "2022-03-09T01:59:11.658Z",
  "devdoc": {
    "kind": "dev",
    "methods": {},
    "version": 1
  },
  "userdoc": {
    "kind": "user",
    "methods": {},
    "version": 1
  }
}